{
  "contractName": "Donations",
  "abi": [
    {
      "constant": false,
      "inputs": [],
      "name": "donate",
      "outputs": [],
      "payable": true,
      "stateMutability": "payable",
      "type": "function"
    },
    {
      "constant": false,
      "inputs": [],
      "name": "withdraw",
      "outputs": [],
      "payable": false,
      "stateMutability": "nonpayable",
      "type": "function"
    }
  ],
  "bytecode": "0x608060405273621da429b40936731e5bf07669778850696316e86000806101000a81548173ffffffffffffffffffffffffffffffffffffffff021916908373ffffffffffffffffffffffffffffffffffffffff16021790555034801561006457600080fd5b50610156806100746000396000f30060806040526004361061004c576000357c0100000000000000000000000000000000000000000000000000000000900463ffffffff1680633ccfd60b14610051578063ed88c68e14610068575b600080fd5b34801561005d57600080fd5b50610066610072565b005b610070610128565b005b6000809054906101000a900473ffffffffffffffffffffffffffffffffffffffff1673ffffffffffffffffffffffffffffffffffffffff163373ffffffffffffffffffffffffffffffffffffffff161415610126573373ffffffffffffffffffffffffffffffffffffffff166108fc3073ffffffffffffffffffffffffffffffffffffffff16319081150290604051600060405180830381858888f19350505050158015610124573d6000803e3d6000fd5b505b565b5600a165627a7a72305820841be0c6fcae1bd134d5026ee0178d63db6a80dd8d829aea434281def4c739560029",
  "source": "pragma solidity ^0.4.24;\n\ncontract Donations{\n    address owner=0x621DA429b40936731E5bf07669778850696316E8;\n    \n    function donate() public payable{}\n    \n    function withdraw() {\n        if(msg.sender == owner) {\n            msg.sender.transfer(this.balance);\n        }\n    }\n}",
  "sourcePath": "/home/a/Desktop/blg/wallet-eod2/src/contracts/Donations.sol",
  "compiler": {
    "name": "solc",
    "version": "0.4.24+commit.e67f0147.Emscripten.clang"
  },
  "schemaVersion": "2.0.1",
  "updatedAt": "2019-03-13T21:39:53.431Z"
}