{
  "contractName": "KnowledgeCoin",
  "abi": [
    {
      "constant": true,
      "inputs": [],
      "name": "name",
      "outputs": [
        {
          "name": "",
          "type": "string"
        }
      ],
      "payable": false,
      "stateMutability": "view",
      "type": "function"
    },
    {
      "constant": true,
      "inputs": [],
      "name": "rate",
      "outputs": [
        {
          "name": "",
          "type": "uint256"
        }
      ],
      "payable": false,
      "stateMutability": "view",
      "type": "function"
    },
    {
      "constant": true,
      "inputs": [
        {
          "name": "",
          "type": "address"
        }
      ],
      "name": "balances_",
      "outputs": [
        {
          "name": "",
          "type": "uint256"
        }
      ],
      "payable": false,
      "stateMutability": "view",
      "type": "function"
    },
    {
      "constant": true,
      "inputs": [
        {
          "name": "",
          "type": "address"
        },
        {
          "name": "",
          "type": "uint256"
        }
      ],
      "name": "description",
      "outputs": [
        {
          "name": "",
          "type": "bytes32"
        }
      ],
      "payable": false,
      "stateMutability": "view",
      "type": "function"
    },
    {
      "constant": true,
      "inputs": [
        {
          "name": "",
          "type": "address"
        },
        {
          "name": "",
          "type": "uint256"
        }
      ],
      "name": "coursestaken",
      "outputs": [
        {
          "name": "",
          "type": "bytes32"
        }
      ],
      "payable": false,
      "stateMutability": "view",
      "type": "function"
    },
    {
      "anonymous": false,
      "inputs": [
        {
          "indexed": true,
          "name": "from",
          "type": "address"
        },
        {
          "indexed": true,
          "name": "to",
          "type": "address"
        },
        {
          "indexed": false,
          "name": "value",
          "type": "uint256"
        }
      ],
      "name": "Transfer",
      "type": "event"
    },
    {
      "anonymous": false,
      "inputs": [
        {
          "indexed": true,
          "name": "to",
          "type": "address"
        },
        {
          "indexed": false,
          "name": "value",
          "type": "uint256"
        },
        {
          "indexed": false,
          "name": "totalSupply",
          "type": "uint256"
        }
      ],
      "name": "TokensMinted",
      "type": "event"
    },
    {
      "anonymous": false,
      "inputs": [
        {
          "indexed": true,
          "name": "from",
          "type": "address"
        },
        {
          "indexed": false,
          "name": "value",
          "type": "uint256"
        }
      ],
      "name": "Erase",
      "type": "event"
    },
    {
      "constant": true,
      "inputs": [],
      "name": "totalSupply",
      "outputs": [
        {
          "name": "",
          "type": "uint256"
        }
      ],
      "payable": false,
      "stateMutability": "view",
      "type": "function"
    },
    {
      "constant": false,
      "inputs": [
        {
          "name": "sender",
          "type": "address"
        }
      ],
      "name": "balanceOf",
      "outputs": [
        {
          "name": "",
          "type": "uint256"
        }
      ],
      "payable": false,
      "stateMutability": "nonpayable",
      "type": "function"
    },
    {
      "constant": false,
      "inputs": [
        {
          "name": "student",
          "type": "address"
        }
      ],
      "name": "canGraduate",
      "outputs": [
        {
          "name": "",
          "type": "bool"
        }
      ],
      "payable": false,
      "stateMutability": "nonpayable",
      "type": "function"
    },
    {
      "constant": false,
      "inputs": [
        {
          "name": "student",
          "type": "address"
        }
      ],
      "name": "getCourse",
      "outputs": [
        {
          "name": "",
          "type": "bytes32[]"
        }
      ],
      "payable": false,
      "stateMutability": "nonpayable",
      "type": "function"
    },
    {
      "constant": false,
      "inputs": [
        {
          "name": "student",
          "type": "address"
        }
      ],
      "name": "getDescription",
      "outputs": [
        {
          "name": "",
          "type": "bytes32[]"
        }
      ],
      "payable": false,
      "stateMutability": "nonpayable",
      "type": "function"
    },
    {
      "constant": false,
      "inputs": [
        {
          "name": "student",
          "type": "address"
        },
        {
          "name": "coursename",
          "type": "bytes32"
        },
        {
          "name": "_description",
          "type": "bytes32"
        }
      ],
      "name": "addcourse",
      "outputs": [
        {
          "name": "",
          "type": "bool"
        }
      ],
      "payable": true,
      "stateMutability": "payable",
      "type": "function"
    },
    {
      "constant": false,
      "inputs": [
        {
          "name": "student",
          "type": "address"
        },
        {
          "name": "amount",
          "type": "uint256"
        }
      ],
      "name": "add",
      "outputs": [],
      "payable": false,
      "stateMutability": "nonpayable",
      "type": "function"
    }
  ],
  "bytecode": "0x608060405234801561001057600080fd5b506109e2806100206000396000f3006080604052600436106100ba576000357c0100000000000000000000000000000000000000000000000000000000900463ffffffff16806306fdde03146100bf57806318160ddd1461014f57806327211e791461017a5780632c4e722e146101e45780632ef368a91461020f5780636ca34ea2146102a757806370a08231146102fe57806380f81c8c14610355578063b4b1d9c7146103be578063c964258214610456578063d277ee75146104bf578063f5d82b6b1461051a575b600080fd5b3480156100cb57600080fd5b506100d4610567565b6040518080602001828103825283818151815260200191508051906020019080838360005b838110156101145780820151818401526020810190506100f9565b50505050905090810190601f1680156101415780820380516001836020036101000a031916815260200191505b509250505060405180910390f35b34801561015b57600080fd5b506101646105a0565b6040518082815260200191505060405180910390f35b6101ca600480360381019080803573ffffffffffffffffffffffffffffffffffffffff169060200190929190803560001916906020019092919080356000191690602001909291905050506105aa565b604051808215151515815260200191505060405180910390f35b3480156101f057600080fd5b506101f961074b565b6040518082815260200191505060405180910390f35b34801561021b57600080fd5b50610250600480360381019080803573ffffffffffffffffffffffffffffffffffffffff169060200190929190505050610750565b6040518080602001828103825283818151815260200191508051906020019060200280838360005b83811015610293578082015181840152602081019050610278565b505050509050019250505060405180910390f35b3480156102b357600080fd5b506102e8600480360381019080803573ffffffffffffffffffffffffffffffffffffffff1690602001909291905050506107eb565b6040518082815260200191505060405180910390f35b34801561030a57600080fd5b5061033f600480360381019080803573ffffffffffffffffffffffffffffffffffffffff169060200190929190505050610803565b6040518082815260200191505060405180910390f35b34801561036157600080fd5b506103a0600480360381019080803573ffffffffffffffffffffffffffffffffffffffff1690602001909291908035906020019092919050505061084c565b60405180826000191660001916815260200191505060405180910390f35b3480156103ca57600080fd5b506103ff600480360381019080803573ffffffffffffffffffffffffffffffffffffffff16906020019092919050505061087c565b6040518080602001828103825283818151815260200191508051906020019060200280838360005b83811015610442578082015181840152602081019050610427565b505050509050019250505060405180910390f35b34801561046257600080fd5b506104a1600480360381019080803573ffffffffffffffffffffffffffffffffffffffff16906020019092919080359060200190929190505050610917565b60405180826000191660001916815260200191505060405180910390f35b3480156104cb57600080fd5b50610500600480360381019080803573ffffffffffffffffffffffffffffffffffffffff169060200190929190505050610947565b604051808215151515815260200191505060405180910390f35b34801561052657600080fd5b50610565600480360381019080803573ffffffffffffffffffffffffffffffffffffffff1690602001909291908035906020019092919050505061096e565b005b6040805190810160405280600d81526020017f4b6e6f776c65646765636f696e0000000000000000000000000000000000000081525081565b6000600154905090565b6000600180600082825401925050819055506001600260008673ffffffffffffffffffffffffffffffffffffffff1673ffffffffffffffffffffffffffffffffffffffff16815260200190815260200160002060008282540192505081905550600360008573ffffffffffffffffffffffffffffffffffffffff1673ffffffffffffffffffffffffffffffffffffffff168152602001908152602001600020839080600181540180825580915050906001820390600052602060002001600090919290919091509060001916905550600460008573ffffffffffffffffffffffffffffffffffffffff1673ffffffffffffffffffffffffffffffffffffffff1681526020019081526020016000208290806001815401808255809150509060018203906000526020600020016000909192909190915090600019169055503373ffffffffffffffffffffffffffffffffffffffff167f2e8ac5177a616f2aec08c3048f5021e4e9743ece034e8d83ba5caf76688bb47534600154604051808381526020018281526020019250505060405180910390a2600190509392505050565b600081565b6060600360008373ffffffffffffffffffffffffffffffffffffffff1673ffffffffffffffffffffffffffffffffffffffff1681526020019081526020016000208054806020026020016040519081016040528092919081815260200182805480156107df57602002820191906000526020600020905b815460001916815260200190600101908083116107c7575b50505050509050919050565b60026020528060005260406000206000915090505481565b6000600260008373ffffffffffffffffffffffffffffffffffffffff1673ffffffffffffffffffffffffffffffffffffffff168152602001908152602001600020549050919050565b60046020528160005260406000208181548110151561086757fe5b90600052602060002001600091509150505481565b6060600460008373ffffffffffffffffffffffffffffffffffffffff1673ffffffffffffffffffffffffffffffffffffffff16815260200190815260200160002080548060200260200160405190810160405280929190818152602001828054801561090b57602002820191906000526020600020905b815460001916815260200190600101908083116108f3575b50505050509050919050565b60036020528160005260406000208181548110151561093257fe5b90600052602060002001600091509150505481565b6000600c61095483610803565b1015156109645760019050610969565b600090505b919050565b80600260008473ffffffffffffffffffffffffffffffffffffffff1673ffffffffffffffffffffffffffffffffffffffff1681526020019081526020016000208190555050505600a165627a7a723058204e0c13019b7952a5ff29f040f015944cbe68aeed7a1571e08e0afdb8da16be230029",
  "source": "pragma solidity 0.4.24;\n\n\ncontract KnowledgeCoin {\n  string private constant symbol = 'KNC';\n  uint256 private constant value = 1;\n  uint256 private constant needtograduate = 12;\n  string[] private courses;//holds all the names of the courses (shown in dropdown menu for teacher to choose)\n  string public constant name = 'Knowledgecoin';\n  uint public constant rate = 0;  // rate of token / wei for purchase\n  uint256 private totalSupply_;\n  mapping (address => uint256) public balances_;//maps the address to the balance.\n  //mapping (address => uint256) public checkoutmap_;//maps the address to the valid checkou time\n  //creates a reference to know that a specific address (account) has a specific blance.\n  mapping(address => bytes32[]) public coursestaken;//stores the courses that student at specific address is taking\n  mapping(address => bytes32[]) public description;//the student to the course descriptions (in the same order as the courses are stored in the coursestaken map)\n  //mapping(string=> string) public displaycourse;//\n // mapping(address =>bool) public bigmapkeyexists;\n // address[] private bigmapkeys;\n  //string[] private nestedmapkeys;\n\n  event Transfer(address indexed from, address indexed to, uint value);\n  event TokensMinted(address indexed to, uint256 value, uint256 totalSupply);\n  event Erase (address indexed from, uint value); \n \n    //Return total amount of tokens\n    function totalSupply() external constant returns (uint256) {\n        return totalSupply_; \n    }\n    \n    //Return the address' balance \n    function balanceOf(address sender) public returns (uint256) {\n        return balances_[sender];\n    }\n    \n    function canGraduate(address student) public returns(bool){\n      if(balanceOf(student) >= needtograduate){\n        return true;\n      }\n      return false;\n    }\n    \n    function getCourse(address student) external returns (bytes32[]){\n        return coursestaken[student];\n    }\n    \n    function getDescription(address student) public returns (bytes32[]){\n        return description[student];\n    }\n\n\n  function addcourse(address student, bytes32 coursename, bytes32 _description) public payable returns (bool)//creates new tokens (balance increases by 1 every time it is called)\n  {\n    totalSupply_ += value;   // NOTE overflow\n    balances_[student] += value; // NOTE overflow adding to the balances\n    coursestaken[student].push(coursename);//update the courses\n    description[student].push(_description);//update the description \n    //coursestaken and description are parallel (their elements at specific indexes are related)\n    emit TokensMinted(msg.sender, msg.value, totalSupply_);\n    return true;\n  }\n\n  function add(address student, uint amount) {\n    balances_[student]=amount;\n  }\n  \n  \n}",
  "sourcePath": "/home/a/Desktop/blg/wallet-eod2/src/contracts/KnowledgeCoin.sol",
  "compiler": {
    "name": "solc",
    "version": "0.4.24+commit.e67f0147.Emscripten.clang"
  },
  "schemaVersion": "2.0.1",
  "updatedAt": "2019-03-14T14:00:39.246Z"
}