{
  "contractName": "Token",
  "abi": [
    {
      "constant": true,
      "inputs": [],
      "name": "name",
      "outputs": [
        {
          "name": "",
          "type": "string"
        }
      ],
      "payable": false,
      "stateMutability": "view",
      "type": "function"
    },
    {
      "constant": true,
      "inputs": [
        {
          "name": "",
          "type": "address"
        }
      ],
      "name": "balances_",
      "outputs": [
        {
          "name": "",
          "type": "uint256"
        }
      ],
      "payable": false,
      "stateMutability": "view",
      "type": "function"
    },
    {
      "constant": true,
      "inputs": [],
      "name": "symbol",
      "outputs": [
        {
          "name": "",
          "type": "string"
        }
      ],
      "payable": false,
      "stateMutability": "view",
      "type": "function"
    },
    {
      "anonymous": false,
      "inputs": [
        {
          "indexed": true,
          "name": "from",
          "type": "address"
        },
        {
          "indexed": true,
          "name": "to",
          "type": "address"
        },
        {
          "indexed": false,
          "name": "value",
          "type": "uint256"
        }
      ],
      "name": "Transfer",
      "type": "event"
    },
    {
      "anonymous": false,
      "inputs": [
        {
          "indexed": true,
          "name": "to",
          "type": "address"
        },
        {
          "indexed": false,
          "name": "value",
          "type": "uint256"
        },
        {
          "indexed": false,
          "name": "totalSupply",
          "type": "uint256"
        }
      ],
      "name": "TokensMinted",
      "type": "event"
    },
    {
      "anonymous": false,
      "inputs": [
        {
          "indexed": true,
          "name": "from",
          "type": "address"
        },
        {
          "indexed": false,
          "name": "value",
          "type": "uint256"
        }
      ],
      "name": "Erase",
      "type": "event"
    },
    {
      "constant": false,
      "inputs": [],
      "name": "donate",
      "outputs": [],
      "payable": true,
      "stateMutability": "payable",
      "type": "function"
    },
    {
      "constant": false,
      "inputs": [],
      "name": "withdraw",
      "outputs": [],
      "payable": false,
      "stateMutability": "nonpayable",
      "type": "function"
    },
    {
      "constant": false,
      "inputs": [
        {
          "name": "student",
          "type": "address"
        },
        {
          "name": "amount",
          "type": "uint256"
        }
      ],
      "name": "fundAccount",
      "outputs": [],
      "payable": false,
      "stateMutability": "nonpayable",
      "type": "function"
    },
    {
      "constant": false,
      "inputs": [
        {
          "name": "a",
          "type": "address[]"
        },
        {
          "name": "b",
          "type": "uint256[]"
        }
      ],
      "name": "initializeAges",
      "outputs": [],
      "payable": false,
      "stateMutability": "nonpayable",
      "type": "function"
    },
    {
      "constant": false,
      "inputs": [
        {
          "name": "_value",
          "type": "uint256"
        }
      ],
      "name": "buyItem",
      "outputs": [
        {
          "name": "",
          "type": "bool"
        }
      ],
      "payable": false,
      "stateMutability": "nonpayable",
      "type": "function"
    },
    {
      "constant": false,
      "inputs": [
        {
          "name": "student",
          "type": "address"
        }
      ],
      "name": "checkin",
      "outputs": [
        {
          "name": "",
          "type": "bool"
        }
      ],
      "payable": false,
      "stateMutability": "nonpayable",
      "type": "function"
    },
    {
      "constant": false,
      "inputs": [
        {
          "name": "student",
          "type": "address"
        }
      ],
      "name": "checkout",
      "outputs": [
        {
          "name": "",
          "type": "bool"
        }
      ],
      "payable": false,
      "stateMutability": "nonpayable",
      "type": "function"
    }
  ],
  "bytecode": "0x608060405273621da429b40936731e5bf07669778850696316e8600560006101000a81548173ffffffffffffffffffffffffffffffffffffffff021916908373ffffffffffffffffffffffffffffffffffffffff16021790555034801561006557600080fd5b50611095806100756000396000f3006080604052600436106100a4576000357c0100000000000000000000000000000000000000000000000000000000900463ffffffff16806306fdde03146100a95780633ccfd60b146101395780633dae0d1a14610150578063450fac71146101ab5780636ca34ea2146101f857806395d89b411461024f578063a35fdcb6146102df578063a86192061461033a578063e7fb74c7146103e3578063ed88c68e14610428575b600080fd5b3480156100b557600080fd5b506100be610432565b6040518080602001828103825283818151815260200191508051906020019080838360005b838110156100fe5780820151818401526020810190506100e3565b50505050905090810190601f16801561012b5780820380516001836020036101000a031916815260200191505b509250505060405180910390f35b34801561014557600080fd5b5061014e61046b565b005b34801561015c57600080fd5b50610191600480360381019080803573ffffffffffffffffffffffffffffffffffffffff169060200190929190505050610522565b604051808215151515815260200191505060405180910390f35b3480156101b757600080fd5b506101f6600480360381019080803573ffffffffffffffffffffffffffffffffffffffff169060200190929190803590602001909291905050506106c1565b005b34801561020457600080fd5b50610239600480360381019080803573ffffffffffffffffffffffffffffffffffffffff169060200190929190505050610709565b6040518082815260200191505060405180910390f35b34801561025b57600080fd5b50610264610721565b6040518080602001828103825283818151815260200191508051906020019080838360005b838110156102a4578082015181840152602081019050610289565b50505050905090810190601f1680156102d15780820380516001836020036101000a031916815260200191505b509250505060405180910390f35b3480156102eb57600080fd5b50610320600480360381019080803573ffffffffffffffffffffffffffffffffffffffff16906020019092919050505061075a565b604051808215151515815260200191505060405180910390f35b34801561034657600080fd5b506103e160048036038101908080359060200190820180359060200190808060200260200160405190810160405280939291908181526020018383602002808284378201915050505050509192919290803590602001908201803590602001908080602002602001604051908101604052809392919081815260200183836020028082843782019150505050505091929192905050506107b7565b005b3480156103ef57600080fd5b5061040e60048036038101908080359060200190929190505050610c43565b604051808215151515815260200191505060405180910390f35b610430610dd5565b005b6040805190810160405280600981526020017f43616d626f636f696e000000000000000000000000000000000000000000000081525081565b600560009054906101000a900473ffffffffffffffffffffffffffffffffffffffff1673ffffffffffffffffffffffffffffffffffffffff163373ffffffffffffffffffffffffffffffffffffffff161415610520573373ffffffffffffffffffffffffffffffffffffffff166108fc3073ffffffffffffffffffffffffffffffffffffffff16319081150290604051600060405180830381858888f1935050505015801561051e573d6000803e3d6000fd5b505b565b60008042905080600460008573ffffffffffffffffffffffffffffffffffffffff1673ffffffffffffffffffffffffffffffffffffffff168152602001908152602001600020541115151561057657600080fd5b80600460008573ffffffffffffffffffffffffffffffffffffffff1673ffffffffffffffffffffffffffffffffffffffff168152602001908152602001600020541115156106bb57600b600260008573ffffffffffffffffffffffffffffffffffffffff1673ffffffffffffffffffffffffffffffffffffffff168152602001908152602001600020541115156106155761061083610e3e565b610677565b600e600260008573ffffffffffffffffffffffffffffffffffffffff1673ffffffffffffffffffffffffffffffffffffffff1681526020019081526020016000205411151561066c5761066783610ef7565b610676565b61067583610fb0565b5b5b600460008473ffffffffffffffffffffffffffffffffffffffff1673ffffffffffffffffffffffffffffffffffffffff168152602001908152602001600020600090555b50919050565b80600360008473ffffffffffffffffffffffffffffffffffffffff1673ffffffffffffffffffffffffffffffffffffffff168152602001908152602001600020819055505050565b60036020528060005260406000206000915090505481565b6040805190810160405280600381526020017f43434f000000000000000000000000000000000000000000000000000000000081525081565b6000806000429150600a8201905080600460008673ffffffffffffffffffffffffffffffffffffffff1673ffffffffffffffffffffffffffffffffffffffff16815260200190815260200160002081905550600192505050919050565b8060008151811015156107c657fe5b90602001906020020151600260008460008151811015156107e357fe5b9060200190602002015173ffffffffffffffffffffffffffffffffffffffff1673ffffffffffffffffffffffffffffffffffffffff1681526020019081526020016000208190555080600181518110151561083a57fe5b906020019060200201516002600084600181518110151561085757fe5b9060200190602002015173ffffffffffffffffffffffffffffffffffffffff1673ffffffffffffffffffffffffffffffffffffffff168152602001908152602001600020819055508060028151811015156108ae57fe5b90602001906020020151600260008460028151811015156108cb57fe5b9060200190602002015173ffffffffffffffffffffffffffffffffffffffff1673ffffffffffffffffffffffffffffffffffffffff1681526020019081526020016000208190555080600381518110151561092257fe5b906020019060200201516002600084600381518110151561093f57fe5b9060200190602002015173ffffffffffffffffffffffffffffffffffffffff1673ffffffffffffffffffffffffffffffffffffffff1681526020019081526020016000208190555080600481518110151561099657fe5b90602001906020020151600260008460048151811015156109b357fe5b9060200190602002015173ffffffffffffffffffffffffffffffffffffffff1673ffffffffffffffffffffffffffffffffffffffff16815260200190815260200160002081905550806005815181101515610a0a57fe5b9060200190602002015160026000846005815181101515610a2757fe5b9060200190602002015173ffffffffffffffffffffffffffffffffffffffff1673ffffffffffffffffffffffffffffffffffffffff16815260200190815260200160002081905550806006815181101515610a7e57fe5b9060200190602002015160026000846006815181101515610a9b57fe5b9060200190602002015173ffffffffffffffffffffffffffffffffffffffff1673ffffffffffffffffffffffffffffffffffffffff16815260200190815260200160002081905550806007815181101515610af257fe5b9060200190602002015160026000846007815181101515610b0f57fe5b9060200190602002015173ffffffffffffffffffffffffffffffffffffffff1673ffffffffffffffffffffffffffffffffffffffff16815260200190815260200160002081905550806008815181101515610b6657fe5b9060200190602002015160026000846008815181101515610b8357fe5b9060200190602002015173ffffffffffffffffffffffffffffffffffffffff1673ffffffffffffffffffffffffffffffffffffffff16815260200190815260200160002081905550806009815181101515610bda57fe5b9060200190602002015160026000846009815181101515610bf757fe5b9060200190602002015173ffffffffffffffffffffffffffffffffffffffff1673ffffffffffffffffffffffffffffffffffffffff168152602001908152602001600020819055505050565b600081600360003373ffffffffffffffffffffffffffffffffffffffff1673ffffffffffffffffffffffffffffffffffffffff1681526020019081526020016000205410151515610d22576040517f08c379a00000000000000000000000000000000000000000000000000000000081526004018080602001828103825260308152602001807f53656e6465722062616c616e636520697320696e73756666696369656e742c2081526020017f546f6b656e2e7472616e7366657228290000000000000000000000000000000081525060400191505060405180910390fd5b81600360003373ffffffffffffffffffffffffffffffffffffffff1673ffffffffffffffffffffffffffffffffffffffff168152602001908152602001600020600082825403925050819055508160008082825403925050819055503373ffffffffffffffffffffffffffffffffffffffff167f47a06ded7b2cd2d85264d8dbc1354e3bd4a622a3a8e878f59b7537920cec8b94836040518082815260200191505060405180910390a260019050919050565b600073ffffffffffffffffffffffffffffffffffffffff16600073ffffffffffffffffffffffffffffffffffffffff167fddf252ad1be2c89b69c2b068fc378daa952ba7f163c4a11628f55a4df523b3ef346040518082815260200191505060405180910390a3565b601460008082825401925050819055506014600360008373ffffffffffffffffffffffffffffffffffffffff1673ffffffffffffffffffffffffffffffffffffffff168152602001908152602001600020600082825401925050819055503373ffffffffffffffffffffffffffffffffffffffff167f2e8ac5177a616f2aec08c3048f5021e4e9743ece034e8d83ba5caf76688bb47534600054604051808381526020018281526020019250505060405180910390a250565b602860008082825401925050819055506028600360008373ffffffffffffffffffffffffffffffffffffffff1673ffffffffffffffffffffffffffffffffffffffff168152602001908152602001600020600082825401925050819055503373ffffffffffffffffffffffffffffffffffffffff167f2e8ac5177a616f2aec08c3048f5021e4e9743ece034e8d83ba5caf76688bb47534600054604051808381526020018281526020019250505060405180910390a250565b605060008082825401925050819055506050600360008373ffffffffffffffffffffffffffffffffffffffff1673ffffffffffffffffffffffffffffffffffffffff168152602001908152602001600020600082825401925050819055503373ffffffffffffffffffffffffffffffffffffffff167f2e8ac5177a616f2aec08c3048f5021e4e9743ece034e8d83ba5caf76688bb47534600054604051808381526020018281526020019250505060405180910390a2505600a165627a7a72305820e6e6459f6110ae71569b94cc4f5909f9689a897038cf887d0ad2dad401571f840029",
  "source": "pragma solidity 0.4.24;\n\ncontract Token {\n    uint256 private constant pri=11;\n    uint256 private constant mid=14;\n    uint256 private constant sec=18;\n    uint256 private constant primary = 20;\n    uint256 private constant middle = 40;\n    uint256 private constant secondary = 80;\n\n    string public constant symbol = 'CCO';\n    string public constant name = 'Cambocoin';\n    uint256 private totalSupply_;\n    uint256[] private item;\n    \n    mapping (address => uint256) private age; //maps the address to the student to the age of the students\n    mapping (address => uint256) public balances_;//maps the address to the balance.\n    mapping (address => uint256) private checkoutmap_;//maps the address to the valid checkout time\n    //creates a reference to know that a specific address (account) has a specific balance.\n  \n    event Transfer(address indexed from, address indexed to, uint value);\n    event TokensMinted(address indexed to, uint256 value, uint256 totalSupply);\n    event Erase (address indexed from, uint value);\n    \n    address owner=0x621DA429b40936731E5bf07669778850696316E8;\n    \n    function donate() public payable{\n        emit Transfer(address(0), address(0), msg.value);\n    }\n    \n    function withdraw() {\n        if(msg.sender == owner) {\n            msg.sender.transfer(this.balance);\n        }\n    }\n\n    function fundAccount(address student, uint amount) external {\n        balances_[student] = amount;\n    }\n\n    //initializes the students ages and links it to the addresses\n    function initializeAges(address[] a, uint[] b) {\n        age[a[0]]=b[0];\n        age[a[1]]=b[1];\n        age[a[2]]=b[2];\n        age[a[3]]=b[3];\n        age[a[4]]=b[4];\n        age[a[5]]=b[5];\n        age[a[6]]=b[6];\n        age[a[7]]=b[7];\n        age[a[8]]=b[8];\n        age[a[9]]=b[9];\n    }\n    \n    //sets up items to be used\n    function items() private {\n        item[0]=3; //chicken\n        item[1]=2; //rice\n        item[2]=9; //apple\n        item[3]=4; //potatos\n        item[4]=25; // beef\n        item[5]=3; //onion\n        item[6]=4; // tomato\n        item[7]=100; //money\n        item[8]=300; //health\n    }\n    \n    //Return total amount of tokens\n    function totalSupply() private constant returns (uint256) {\n        return totalSupply_; \n    }\n    \n    //Erase token from circulation\n    function buyItem(uint256 _value) external returns (bool) {\n        require(balances_[msg.sender] >= _value, 'Sender balance is insufficient, Token.transfer()');\n        balances_[msg.sender] -= _value;\n        totalSupply_ -= _value;\n        emit Erase(msg.sender, _value); \n        return true;\n    }\n    \n    function checkin(address student) returns (bool){\n    uint256 time= now;\n    uint256 timeout= time + 10 seconds;\n    checkoutmap_[student]=timeout; \n    return true;\n}\n\n    function checkout(address student) returns (bool){\n    uint256 time = now;\n    require(checkoutmap_[student] <= time);\n    if(checkoutmap_[student]<= time){\n        //you have to let them checkout and give them the tokens for their levels\n        if(age[student]<=pri){\n            primarymint(student);\n        }\n        else if(age[student]<=mid){\n            middlemint(student);\n        }\n        else{\n          secondarymint(student);  \n        }\n        delete checkoutmap_[student];\n    }\n}\n\n    function primarymint(address student) private/*creates new tokens (balance increases by 1 every time it is called)*/{\n    totalSupply_ += primary;   // NOTE overflow\n    balances_[student] += primary; // NOTE overflow\n    emit TokensMinted(msg.sender, msg.value, totalSupply_);\n  }\n\n    function middlemint(address student) private/*creates new tokens (balance increases by 1 every time it is called)*/{\n    totalSupply_ += middle;   // NOTE overflow\n    balances_[student] += middle; // NOTE overflow\n    emit TokensMinted(msg.sender, msg.value, totalSupply_);\n  }\n\n    function secondarymint(address student) private/*creates new tokens (balance increases by 1 every time it is called)*/{\n    totalSupply_ += secondary;   // NOTE overflow\n    balances_[student] += secondary; // NOTE overflow\n    emit TokensMinted(msg.sender, msg.value, totalSupply_);\n    }\n\n\n}",
  "sourcePath": "/home/a/Desktop/blg/wallet-eod2/src/contracts/Token.sol",
  "compiler": {
    "name": "solc",
    "version": "0.4.24+commit.e67f0147.Emscripten.clang"
  },
  "schemaVersion": "2.0.1",
  "updatedAt": "2019-03-14T14:00:39.258Z"
}